:020000040800F2
:10000000A804002005010008CF0D00085F0D0008BE
:10001000CD0D00089D010008D10F00080000000070
:10002000000000000000000000000000D30D0008E8
:100030009F01000800000000D10D0008D50D000848
:100040001F0100081F0100081F0100081F01000810
:100050001F0100081F0100081F0100081F01000800
:100060001F0100081F0100081F0100081F010008F0
:100070001F0100081F0100081F0100081F010008E0
:100080001F0100081F0100081F0100081F010008D0
:100090001F0100081F0100081F0100081F010008C0
:1000A0001F0100081F0100081F0100081F010008B0
:1000B0001F0100081F0100081F0100081F010008A0
:1000C0001F0100081F0100081F0100081F01000890
:1000D0001F0100081F0100081F0100081F01000880
:1000E0001F0100081F0100081F010008DFF810D0E1
:1000F00000F042F800480047A1110008AFF300806B
:10010000A80400200648804706480047FEE7FEE7AF
:10011000FEE7FEE7FEE7FEE7FEE7FEE7FEE7FEE7B7
:10012000290E0008ED000008D2B201E000F8012B12
:10013000491EFBD270470022F6E710B513460A4667
:1001400004461946FFF7F0FF204610BD30B50B46B8
:10015000014600202022012409E021FA02F59D42F7
:1001600005D303FA02F5491B04FA02F52844151ECB
:10017000A2F10102F1DC30BD064C074D06E0E0685B
:1001800040F0010394E8070098471034AC42F6D3DE
:10019000FFF7B0FF8C120008AC120008FEE77047B2
:1001A00070B5044600F004F90546601C02D004480E
:1001B0000078044400F0FCF8401BA042FAD370BD64
:1001C000040000202DE9F84FDFF8B891002409F170
:1001D000040A0AF1040B23460F270BF1040EC9E0B1
:1001E0000125A5402A40AA427DD1674ED1F804C01E
:1001F000ACEB0608B44532D014DCBCF1030F3AD0A6
:1002000009DCBCF1000F2AD0BCF1010F1CD0BCF1FD
:10021000020F31D11DE0BCF1110F17D0BCF1120F4C
:100220002AD119E0B8F5881F19D006DCB8F5803F4F
:1002300015D0B8F5801F1FD111E0B8F5001F0ED002
:10024000B8F5041F18D10AE0CB6815E0CB681B1D78
:1002500012E0CB6808330FE0CB680C330CE08B68FE
:100260002BB1012B4FF0080303D0456104E00423B8
:1002700002E0056100E00023FF2A01D8064601E004
:1002800000F104064FEA840501D9A5F12005D6F84E
:10029000008007FA05FC28EA0C0803FA05F548EA8D
:1002A0000508C6F800804D68ED0062D5374DAE698F
:1002B00046F00106AE61AD6924F0030605F00105C4
:1002C0000095334D06EB050CDCF80850A607360FF9
:1002D00007FA06F825EA0805DFF8B880404503D19B
:1002E0004FF0000817E044E0DFF8AC80404502D151
:1002F0004FF001080FE0DFF8A480404502D14FF035
:10030000020808E0DFF89880404502D14FF003086A
:1003100001E04FF0040808FA06F848EA0508CCF8AE
:1003200008804D68D9F80060ED034D4601D51643AD
:1003300000E096432E604D68DAF80060AD03554644
:1003400001D5164300E096432E604D68DBF800604F
:10035000ED025D4601D5164300E096432E604D68E0
:10036000DEF80060AD02754601D5164300E0964305
:100370002E60641C0D682A46E5407FF431AFBDE86D
:10038000F88F00000004014000001110001002402E
:100390000000014000080140000C01400010014035
:1003A000001401408068084000D001207047000020
:1003B00001488068704700000400002002488168FE
:1003C000027811448160704704000020074810B58E
:1003D000016841F010010160032000F067F800207F
:1003E00000F006F800F024F8002010BD00200240C4
:1003F00070B50D4D04464FF47A712878B1FBF0F0DA
:100400000A490968B1FBF0F000F0DEFA48B9102C97
:1004100007D200222146501E00F028F800206C6010
:1004200070BD012070BD00000400002010000020FD
:100430000C4808B5816941F001018161816901F0D1
:1004400001010091C16941F08051C161C06900F0B2
:10045000805000900448416821F0E06141F0007153
:10046000416008BD0010024000000140F0B40E4B96
:100470001B680C46C3F30223C3F10705042D00D902
:100480000425191D072901D2002300E0DB1E0126E7
:1004900006FA05F1491E214099409E40761E1640FD
:1004A0003143F0BC00F0A6BD0CED00E0064900F0C1
:1004B000070208684FF6FF03184040EA0220034A8B
:1004C00010430860704700000CED00E00000FA05E2
:1004D0002DE9F0470F46050061D0434E306800F02B
:1004E0000700B84209D2306820F007003843306076
:1004F000306800F00700B84251D128683B4C8107B2
:1005000012D5400703D5606840F4E0606060287849
:10051000000703D5606840F4605060606068A968B7
:1005200020F0F000084360602878C00728D0686891
:10053000012810D02168022810D0890700292EDA5E
:10054000616821F0030101436160FFF731FF8046DC
:1005500041F288390DE021688903EFE78901EDE771
:10056000FFF726FFA0EB0801494502D90320BDE8AB
:10057000F0876068696800F00C00B0EB810FEFD184
:10058000306800F00700B8420BD9306820F007004F
:1005900038433060306800F00700B84201D00120D5
:1005A000E5E72878400705D56068E96820F4E06051
:1005B000084360602878000706D56068296920F440
:1005C000605040EAC100606000F038F86168084A95
:1005D000C1F30311515CC840064908600648006831
:1005E000FFF706FF0020C2E7002002400010024093
:1005F000741200081000002008000020044805497B
:1006000000684968044AC1F30221515CC840704740
:100610001000002000100240841200080448054920
:1006200000684968044AC1F3C221515CC840704760
:1006300010000020001002408412000812A185B0B2
:100640000FC98DE80F0014A0144A00680490516887
:10065000134801F00C03042B10D0082B0ED1C1F36A
:100660008343C9031DF803000AD5516804AAC1F3E6
:100670004041515C0A4A5043B0FBF1F005B070476D
:1006800008494843FAE70000020304050607080981
:100690000A0B0C0D0E0F101001020000001002409A
:1006A00000127A0000093D002DE9F84F040070D0D7
:1006B0002078C04DC00749D06868C0F38100012888
:1006C00007D06868C0F38100022809D16868C003B8
:1006D00006D52868800339D560680028E7D035E062
:1006E0006068B0F5803F0BD010B1B0F5A02F11D0ED
:1006F000286820F480302860286820F4802002E0F8
:10070000286840F480302860606890B1FFF750FEA0
:1007100006460AE0286840F480202860F0E700BF21
:10072000FFF746FE801B642873D828688003F7D53E
:100730000CE0FFF73DFE064605E000BFFFF738FE80
:10074000801B6428F0D828688003F7D420789A4E5C
:1007500080074FF001094FF0000839D5686810F0A4
:100760000C0F07D06868C0F38100022809D16868BF
:10077000C00306D42868800714D52069012808D151
:1007800010E02069B0B1C6F80090FFF711FE0746EF
:1007900005E00AE1FFF70CFEC01B0228C4D8286858
:1007A0008007F7D52868616920F0F80040EAC100A9
:1007B00028600DE0C6F80080FFF7FAFD074604E068
:1007C000FFF7F6FDC01B022823D828688007F7D45E
:1007D000207800072CD57948A169D9B1C0F80090DC
:1007E000FFF7E6FD074604E0FFF7E2FDC01B022825
:1007F0000FD8686A8007F7D571484FF4FA5100683E
:10080000B0FBF1F0009000BF0098411E0091FAD2B9
:100810000EE080E0C0F80080FFF7CAFD074604E064
:10082000FFF7C6FDC01B022875D8686A8007F7D499
:100830002078400760D5E8690027C00008D4E8693F
:1008400040F08050E861E869012700F08050009096
:100850005C480168C90513D40168834641F480717E
:100860000160FFF7A5FD824606E000BFFFF7A0FD8F
:10087000A0EB0A0064284ED8DBF80000C005F5D5CF
:10088000E06801280AD008B1052813D0286A20F0B2
:1008900001002862286A20F0040002E0286A40F083
:1008A00001002862E06841F2883B98B1FFF780FDC3
:1008B00082460BE0286A40F004002862EEE700BFA1
:1008C000FFF776FDA0EB0A0159455AD8286A800740
:1008D000F6D50CE0FFF76CFD824605E0FFF768FDFA
:1008E000A0EB0A0159454CD8286A8007F6D41FB1FD
:1008F000E86920F08050E861E06988B36968C1F375
:100900008101022944D00228C6F8608004D0FFF794
:100910004FFD044638E034E0FFF74AFD074604E0A7
:10092000FFF746FDC01B02282BD828688001F7D4AA
:10093000206AB0F5803F05D16868A16820F40030D6
:1009400008436860D4E908010843696821F4741118
:1009500008436860C6F86090FFF72AFD044606E089
:1009600025E000BFFFF724FD001B022809D82868F6
:100970008001F7D51BE000BFFFF71AFD001B02281E
:1009800002D90320BDE8F88F28688001F4D40EE076
:100990000128F7D06868226A00F48031914204D1BE
:1009A000616A00F47010884201D00120EAE700205B
:1009B000E8E700000010024000004242800442428A
:1009C000100000200070004010B5401EB0F1807F84
:1009D00001D3012010BD4FF0E02460610F216017AA
:1009E00000F008FB0020A06107202061002010BD5E
:1009F00070B590F83C20012A26D0012480F83C40B4
:100A0000022280F83D2003685A689D6822F0700633
:100A10000A6832435A600D4B02689A4208D0B2F11C
:100A2000804F05D00A4B9A4202D00A4B9A4204D119
:100A3000496825F080031943916080F83D4000210A
:100A400080F83C10084670BD022070BD002C0140AB
:100A500000040040000800402DE9F0410D4604006C
:100A600003D094F83D0018B108E00120BDE8F08102
:100A7000002084F83C00204600F040F8022084F872
:100A80003D002068816844F2070291438160211D86
:100A9000206800F0CBF9226890689169166A2B688B
:100AA000AF69034340F20330814341EA0721A8685C
:100AB000EF6908434FF6FC418843E96840EA0720A4
:100AC000014328692F6A000140EA0730084369683A
:100AD0006D6926F0220646EA0515294393602268CF
:100AE000906154F8460B0162012004F81F09E0757B
:100AF0002076E0762077A0750020B7E700B585B0B6
:100B0000002100910191029103910068B0F1804FA2
:100B100016D10C48C16941F00101C161C16901F000
:100B200001010491816941F0040181618069694694
:100B300000F004000490032000900348FFF742FBFC
:100B400005B000BD001002400008014070B590F8EB
:100B50003E60044690F83F5090F8423090F84320B1
:100B6000022021B104290ED0012E1BD114E0012E48
:100B700018D1012B16D184F83E0084F842000122DE
:100B80000021206820E0012D0CD1012A0AD184F82F
:100B90003F0084F8430014E0012D03D1012B01D163
:100BA000012A01D0012070BD84F83E0084F83F0086
:100BB00084F8420084F8430001220021206800F0FC
:100BC0006BF901220421206800F066F920680168B1
:100BD00041F001010160002070BD70B5040004D037
:100BE00094F83D00002510B106E0012070BD84F8A6
:100BF0003C50204600F022F8242084F83D00206874
:100C0000C16821F40051C160204600F053F920680A
:100C1000016921F4904101612068416921F02A01B4
:100C200041612068C16841F40051C1602564202001
:100C300084F83D0084F83E00002070BD30B585B0DA
:100C4000002400940194029403940068144988429B
:100C500024D11448816941F480418161816901F4A2
:100C600080410491816941F00401816180690E4DE8
:100C700000F0040004904FF40070009002200190F6
:100C80000320039069462846FFF79CFA2815CDE912
:100C90000004694628460294FFF794FA05B030BD77
:100CA0000038014000100240000801402DE9F843DF
:100CB000044690F83D001F4616460D4620284CD1AC
:100CC000C5B1BEB194F83C00012846D0012084F89B
:100CD0003C004FF00008C4F84080212084F83D001B
:100CE000FFF766FBA6848146E684A068B0F5805FC6
:100CF00003D004E00120BDE8F883206928B12E4626
:100D00005FF0000584F83C800EE00026FAE78021C1
:100D1000204600F02BF9A0B9AEB116F8010B2168FE
:100D20004860E08C401EE084E08C4B464FF00002AF
:100D300000970028EBD14FF04001204600F016F953
:100D400030B10320D7E735F8020BC0F30800E6E71F
:100D5000202084F83D000020CDE70220CBE7FEE70D
:100D600010B58CB024216846FFF7E5F90024164839
:100D700009944FF080410A94C0E900144FF6FF71C6
:100D8000C0E902418021046181610320CDE90004B2
:100D90000120CDE902040494CDE905400A20CDE903
:100DA000074069460848FFF757FE08B172B6FEE7EC
:100DB000099409A904480A94FFF71AFE002801D0F3
:100DC00072B6FEE70CB010BD18000020FEE7FEE78B
:100DD00070477047FFF7F2BA10B590B02821684607
:100DE000FFF7A9F914210AA8FFF7A5F9022000903E
:100DF0000120049010200024059007946846FFF716
:100E000053FC08B172B6FEE70F20CDE90A040C943A
:100E10000D9400210AA80E94FFF75AFB002801D078
:100E200072B6FEE710B010BD70470000F0B5026862
:100E3000164B174C174D4FF08047984205D0B842DB
:100E400003D0A04201D0A84203D122F070064A6824
:100E50003243984205D0B84203D0A04201D0A84204
:100E600003D122F44074CA6822434C6922F0800204
:100E7000224302608A68C2620A688262984201D193
:100E80000969016301214161F0BD0000002C0140AE
:100E9000000400400008004010B501F01F030121CC
:100EA000046A99408C430462016A9A4011430162CA
:100EB00010BD000070B5044600680169E26821F4C5
:100EC0004051114301612169A068084361690843E9
:100ED0002168CA6841F20C639A430243CA602068E1
:100EE0004169A26921F44071114341611E492068A2
:100EF000884202D1FFF792FB01E0FFF77FFB00EB96
:100F0000C00101EB0012606864218000B2FBF0F3C5
:100F1000B3FBF1F36FF018067343B2FBF0F5B2FBCD
:100F2000F0F605EB8305322303EB0515B5FBF1F570
:100F3000B6FBF1F605F0F00505EB0615B2FBF0F691
:100F4000B2FBF0F0B0FBF1F06FF01802504306EB8B
:100F5000800003EB0010B0FBF1F0216800F00F00FF
:100F60002844886070BD0000003801402DE9F04140
:100F7000984617460E460446069D1DE0681C1BD089
:100F80002DB1FFF715FAA0EB0800A84214D920688C
:100F9000C16821F4D071C1602068416921F001016C
:100FA0004161202084F83D0084F83E00002084F850
:100FB0003C000320BDE8F0812068006836EA0000AC
:100FC00004D00020B842D9D00020F3E70120F9E78F
:100FD000FEE700000FB4054B10B503A9044A0298C0
:100FE00000F028F810BC5DF814FB0000891100081F
:100FF000140000200907090E002804DB00F1E0209E
:1010000080F80014704700F00F0000F1E02080F835
:10101000141D704702E008C8121F08C1002AFAD147
:1010200070477047002001E001C1121F002AFBD168
:10103000704700002DE9FF4F89B09B46044600250C
:1010400006E025280BD05A460B999047641C6D1C6E
:1010500020780028F5D10DB02846BDE8F08F002794
:10106000B8460122474900E0074314F8013F203BFE
:1010700002FA03F00842F7D120782E2819D114F88B
:10108000010F47F004072A280ED06FF02F022078B6
:10109000A0F1300109290CD808EB880102EB4101CD
:1010A00000EB0108641CF2E70A98641C50F8048BFA
:1010B0000A9020780028CED0642808D0692806D06D
:1010C00075281ED05A460B9990476D1C58E00A9916
:1010D0004FF00A0901C90A91002802DA40422D2185
:1010E00002E0390504D52B218DF82010012103E001
:1010F000F90704D02021F7E78A4608AE0DE0002169
:10110000FAE70A994FF00A0901C90A91F7E7494637
:10111000FFF71CF8303106F8011D0028F7D1ADEBC0
:10112000060000F12009780701D44FF00108C845F6
:1011300002DDA8EB090000E000208046002706E061
:1011400008A85A46C05D0B9990476D1C7F1C5745F7
:10115000F6DB04E030205A460B9990476D1CB8F13D
:101160000001A8F10108F5DC05E016F8010B5A466C
:101170000B9990476D1CB9F10001A9F10109F4DC4C
:10118000641C65E70928010013B564230122694640
:101190000248FFF78BFD00201CBD0000600000200E
:1011A00086B00024ADF80040FFF710F9FFF714FEF9
:1011B0002748029403940494816941F004018161F9
:1011C0008069244D00F0040005900420019001A9DD
:1011D0002846FEF7F7FFFFF7C3FD20491E480860C9
:1011E0004FF4E130C1E901040C20CC60C1E90440B6
:1011F0008C610846CC61FFF7F0FC08B172B6FEE7DF
:10120000164804214838FFF7A1FC144E144C483E00
:1012100014274FF4FA783068406A4FF4B47140F301
:101220008F002080484390FBF7F0ADF800000421C8
:101230002846FFF7B7F8BDF90010012806D009A02D
:10124000FFF7C8FE4046FEF7ABFFE4E707A0F7E76D
:1012500000100240000801400038014060000020FA
:1012600000000020503A2564B00D0A00523A25646F
:10127000B00D0A000000000000000000010203049D
:10128000060708090000000001020304AC12000870
:10129000000000201800000014100008C41200080C
:1012A0001800002090040000241000080000000036
:1012B0000100000010000000000000000024F40005
:0412C000000000002A
:04000005080000ED02
:00000001FF
